{
  "contractName": "CertificateStorage",
  "abi": [
    {
      "inputs": [],
      "name": "cid",
      "outputs": [
        {
          "internalType": "string",
          "name": "",
          "type": "string"
        }
      ],
      "stateMutability": "view",
      "type": "function",
      "constant": true
    },
    {
      "inputs": [
        {
          "internalType": "string",
          "name": "_cid",
          "type": "string"
        }
      ],
      "name": "storeCID",
      "outputs": [],
      "stateMutability": "nonpayable",
      "type": "function"
    },
    {
      "inputs": [],
      "name": "getCID",
      "outputs": [
        {
          "internalType": "string",
          "name": "",
          "type": "string"
        }
      ],
      "stateMutability": "view",
      "type": "function",
      "constant": true
    }
  ],
  "bytecode": "0x608060405234801561001057600080fd5b50610756806100206000396000f3fe608060405234801561001057600080fd5b506004361061005e576000357c01000000000000000000000000000000000000000000000000000000009004806302790e3414610063578063aa3ec0a914610081578063ccfdd32b1461009f575b600080fd5b61006b6100bb565b604051610078919061027e565b60405180910390f35b61008961014d565b604051610096919061027e565b60405180910390f35b6100b960048036038101906100b491906103e9565b6101db565b005b6060600080546100ca90610461565b80601f01602080910402602001604051908101604052809291908181526020018280546100f690610461565b80156101435780601f1061011857610100808354040283529160200191610143565b820191906000526020600020905b81548152906001019060200180831161012657829003601f168201915b5050505050905090565b6000805461015a90610461565b80601f016020809104026020016040519081016040528092919081815260200182805461018690610461565b80156101d35780601f106101a8576101008083540402835291602001916101d3565b820191906000526020600020905b8154815290600101906020018083116101b657829003601f168201915b505050505081565b80600090816101ea919061064e565b5050565b600081519050919050565b600082825260208201905092915050565b60005b8381101561022857808201518184015260208101905061020d565b60008484015250505050565b6000601f19601f8301169050919050565b6000610250826101ee565b61025a81856101f9565b935061026a81856020860161020a565b61027381610234565b840191505092915050565b600060208201905081810360008301526102988184610245565b905092915050565b6000604051905090565b600080fd5b600080fd5b600080fd5b600080fd5b7f4e487b7100000000000000000000000000000000000000000000000000000000600052604160045260246000fd5b6102f682610234565b810181811067ffffffffffffffff82111715610315576103146102be565b5b80604052505050565b60006103286102a0565b905061033482826102ed565b919050565b600067ffffffffffffffff821115610354576103536102be565b5b61035d82610234565b9050602081019050919050565b82818337600083830152505050565b600061038c61038784610339565b61031e565b9050828152602081018484840111156103a8576103a76102b9565b5b6103b384828561036a565b509392505050565b600082601f8301126103d0576103cf6102b4565b5b81356103e0848260208601610379565b91505092915050565b6000602082840312156103ff576103fe6102aa565b5b600082013567ffffffffffffffff81111561041d5761041c6102af565b5b610429848285016103bb565b91505092915050565b7f4e487b7100000000000000000000000000000000000000000000000000000000600052602260045260246000fd5b6000600282049050600182168061047957607f821691505b60208210810361048c5761048b610432565b5b50919050565b60008190508160005260206000209050919050565b60006020601f8301049050919050565b60008160020a8302905092915050565b6000600883026104f77fffffffffffffffffffffffffffffffffffffffffffffffffffffffffffffffff826104b7565b61050186836104b7565b95508019841693508086168417925050509392505050565b6000819050919050565b6000819050919050565b600061054861054361053e84610519565b610523565b610519565b9050919050565b6000819050919050565b6105628361052d565b61057661056e8261054f565b8484546104c7565b825550505050565b600090565b61058b61057e565b610596818484610559565b505050565b5b818110156105ba576105af600082610583565b60018101905061059c565b5050565b601f8211156105ff576105d081610492565b6105d9846104a7565b810160208510156105e8578190505b6105fc6105f4856104a7565b83018261059b565b50505b505050565b60008160020a8304905092915050565b600061062560001984600802610604565b1980831691505092915050565b600061063e8383610614565b9150826002028217905092915050565b610657826101ee565b67ffffffffffffffff8111156106705761066f6102be565b5b61067a8254610461565b6106858282856105be565b600060209050601f8311600181146106b857600084156106a6578287015190505b6106b08582610632565b865550610718565b601f1984166106c686610492565b60005b828110156106ee578489015182556001820191506020850194506020810190506106c9565b8683101561070b5784890151610707601f891682610614565b8355505b6001600288020188555050505b50505050505056fea2646970667358221220fd57dece9899be2bb68b53b2944234e006076197a46ee104c4246e0a0a8264cc64736f6c63430008130033",
  "immutableReferences": {},
  "source": "// SPDX-License-Identifier: MIT\r\npragma solidity ^0.8.0;\r\n\r\ncontract CertificateStorage {\r\n  string public cid;\r\n\r\n  function storeCID(string memory _cid) public {\r\n    cid = _cid;\r\n  }\r\n\r\n  function getCID() public view returns (string memory) {\r\n    return cid;\r\n  }\r\n}\r\n",
  "sourcePath": "C:\\Users\\hp\\Desktop\\Blockchain Project\\contracts\\Certificatestorage.sol",
  "compiler": {
    "name": "solc",
    "version": "0.8.19+commit.7dd6d404.Linux.g++"
  },
  "schemaVersion": "3.4.13",
  "updatedAt": "2023-04-05T16:24:36.209Z",
  "networkType": "ethereum",
  "devdoc": {
    "kind": "dev",
    "methods": {},
    "version": 1
  },
  "userdoc": {
    "kind": "user",
    "methods": {},
    "version": 1
  }
}